:100000000C942A000C9447000C9447000C94470071
:100010000C9447000C9447000C9447000C94810109
:100020000C9447000C9447000C9447000C94470034
:100030000C9447000C9447000C9447000C94470024
:100040000C9447000C9447000C9447000C94470014
:100050000C94470011241FBECFE5D8E0DEBFCDBF12
:1000600011E0A0E6B0E0E4E7F5E002C005900D92F3
:10007000A03AB107D9F721E0A0EAB1E001C01D9292
:10008000A23BB207E1F70E94E5010C94B8020C9480
:1000900000008AB3887F8ABB8BB387608BBB0895CF
:1000A00099B3977080916000891326C08091A10157
:1000B000853030F58F5F8093A101853009F520915F
:1000C0006100892F8095822380FF05C02091A001C7
:1000D00021602093A00181FF05C02091A001226032
:1000E0002093A00182FF05C08091A00184608093CD
:1000F000A0019093610008951092A1019093600077
:1001000008958091A00180FF05C08E7F8093A0019B
:1001100081E0089581FF05C08D7F8093A00182E07A
:10012000089582FF05C08B7F8093A00183E008952E
:1001300080E0089510BC83E389B988E18AB986E834
:1001400080BD08955D9BFECF8CB90895CF936AE082
:100150000E948402C92F805D0E94A20080E38C0F60
:10016000CF910C94A200CF93DF93EC018991811180
:1001700003C0DF91CF9108950E94A200F7CF1F9393
:10018000CF93DF93162FD72FC82F82E690E00E94DF
:10019000B300812F0E94A6008AE30E94A2008D2F47
:1001A0000E94A6008AE30E94A2008C2F0E94A60053
:1001B00089E690E0DF91CF911F910C94B3000E94EB
:1001C000B30089E690E00C94B30087B3836087BBEB
:1001D00088B38C7F88BB1092AD011092AC01109255
:1001E000AB011092AA011092A9011092A8011092DD
:1001F000A7011092A6011092A5011092A4011092DD
:10020000A3011092A20108958091AC019091AD01DB
:100210000196883C910590F59093AD018093AC01D7
:100220008091AA019091AB010196843F21E0920751
:1002300068F59093AB018093AA018091A6019091FB
:10024000A70101968233910568F59093A7018093E9
:10025000A6018091A8019091A9018436910568F4C6
:10026000C19B0BC001969093A9018093A80184368D
:10027000910519F481E08093A30108951092AD01D6
:100280001092AC0181E08093A501CACF1092AB011E
:100290001092AA0181E08093A4011092A90110920A
:1002A000A801CBCF1092A7011092A60181E0809304
:1002B000A201CFCF8091A501882331F01092A50132
:1002C00088B391E0892788BB8091A401882339F005
:1002D0001092A401C19A85E791E00E94DF0080910D
:1002E000A301882319F01092A301C1988091A20163
:1002F000882331F01092A20189E891E00C94DF008C
:1003000008951F920F920FB60F9211248F9381E0E0
:100310008093B1018F910F900FBE0F901F90189591
:100320001FBC88E08EBD81EE94E09BBD8ABD1DBCE4
:100330001CBC89B7806189BF8EB583608EBD08956E
:100340009FB7F8948091B10181111092B1019FBFC4
:1003500008958091B0018F5F8C3318F48093B001C1
:1003600008951092B0018091AF018F5F8C3318F423
:100370008093AF0108951092AF018091AE018F5F1D
:10038000883118F48093AE0108951092AE0108955B
:100390006091AE017091AF018091B0010895683114
:1003A00008F067E16093AE017C3308F07BE3709363
:1003B000AF018C3308F08BE38093B0010895EEEA2F
:1003C000F1E010821182128208950E9449000E9479
:1003D0009A000E94E5000E94900178948CE690E0DB
:1003E0000E94DF008BE890E00E94DF008CEA90E042
:1003F0000E94DF0087EC90E00E94DF000E94C801AD
:100400000E94BF00C12CC0E00CE310E088E1E82EA0
:10041000F12C0E94A001882389F00E9404010E940F
:100420005000C39483E68C1548F4C11102C00E94A9
:10043000A9010E94C8010E94BF00C12C0E945A015C
:100440000E948100823021F1833009F454C0813050
:1004500001F7C13089F050F0C230A1F0C330C9F6C5
:1004600080E291E00E94DF00C0E0D3CF86EE90E012
:100470000E94DF00C1E0CDCF88EF90E00E94DF0056
:10048000C2E0C7CF8CE091E00E94DF00C3E0C1CFA3
:10049000CC2309F4BECF0E94C801B62ED72ED82F88
:1004A000C230D1F0C33001F1C13039F4862F90E071
:1004B0000196B7010E949002B82E6B2D7D2D8D2FD5
:1004C0000E94CF016B2D7D2D8D2F0E94BF008DE3EB
:1004D00091E00E94DF009DCF872F90E00196B80148
:1004E0000E949002D82EE9CF90E00196B8010E94B8
:1004F0009002D82FE2CF0E94DF010E94C8010E9423
:10050000BF0085E591E0AECF991B79E004C0991F4B
:10051000961708F0961B881F7A95C9F7809508955D
:1005200097FB072E16F4009407D077FD09D00E94A0
:10053000A40207FC05D03EF4909581959F4F089545
:10054000709561957F4F0895AA1BBB1B51E107C0B1
:10055000AA1FBB1FA617B70710F0A61BB70B881F53
:10056000991F5A95A9F780959095BC01CD010895E2
:04057000F894FFCF2D
:10057400FFFF54494D453A20000D0A003D3D3D2002
:1005840041546D6567613332204469676974616CF5
:1005940020436C6F636B203D3D3D0054696D657273
:1005A400312043544320402031303020487A207C8D
:1005B40020555341525420393630300042757474FA
:1005C4006F6E733A20534554202F20494E43202FF9
:1005D400205245534554002D2D2D2D2D2D2D2D2DDF
:1005E4002D2D2D2D2D2D2D2D2D2D2D2D2D2D2D2D37
:1005F4002D2D2D2D2D005B5345545D204D6F6465CD
:100604003A20484F555253005B5345545D204D6F7B
:1006140064653A204D494E55544553005B53455447
:100624005D204D6F64653A205345434F4E4453005B
:100634005B5345545D204D6F64653A204E4F524DD7
:10064400414C202872756E6E696E6729005B494EB5
:10065400435D204669656C6420696E6372656D65EF
:100664006E746564005B52455345545D20436C6F62
:10067400636B20726573657420746F2030303A3078
:10068400303A3030005441534B3A2053454E534F87
:10069400522053414D504C45005B3530306D732032
:1006A4005469636B5D20457874205461736B00005A
:00000001FF
