:100000000C942A000C9447000C9447000C94470071
:100010000C9447000C9447000C9447000C94640126
:100020000C9447000C9447000C9447000C94470034
:100030000C9447000C9447000C9447000C94470024
:100040000C9447000C9447000C9447000C94470014
:100050000C94470011241FBECFE5D8E0DEBFCDBF12
:1000600011E0A0E6B0E0E4E3F5E002C005900D92F7
:10007000AC39B107D9F721E0ACE9B1E001C01D927C
:10008000AC3AB207E1F70E94C8010C9498020C94B4
:1000900000008AB3887F8ABB8BB387608BBB0895CF
:1000A00099B39770892F8095209160008223909357
:1000B00060008823D1F02FE738E391E021503040F1
:1000C0009040E1F700C0000099B3292F27702093DA
:1000D000600080FF02C090FF0AC081FF02C091FF54
:1000E00008C082FF02C092FF06C080E0089581E050
:1000F000089582E0089583E0089510BC83E389B9F0
:1001000088E18AB986E880BD08955D9BFECF8CB9F1
:100110000895CF936AE00E946402C92F805D0E9417
:10012000850080E38C0FCF910C948500CF93DF93F3
:10013000EC018991811103C0DF91CF9108950E9454
:100140008500F7CF1F93CF93DF93162FD72FC82F9C
:1001500081E690E00E949600812F0E9489008AE348
:100160000E9485008D2F0E9489008AE30E948500ED
:100170008C2F0E94890088E690E0DF91CF911F913B
:100180000C9496000E94960088E690E00C949600ED
:1001900087B3836087BB88B38C7F88BB1092A7012D
:1001A0001092A6011092A5011092A4011092A30131
:1001B0001092A2011092A1011092A00110929F0131
:1001C00010929E0110929D0110929C0108958091C1
:1001D000A6019091A7010196883C910590F5909316
:1001E000A7018093A6018091A4019091A501019699
:1001F000843F21E0920768F59093A5018093A401C4
:100200008091A0019091A10101968233910568F53A
:100210009093A1018093A0018091A2019091A301EC
:100220008436910568F4C19B0BC001969093A3019D
:100230008093A2018436910519F481E080939D0199
:1002400008951092A7011092A60181E080939F016A
:10025000CACF1092A5011092A40181E080939E0163
:100260001092A3011092A201CBCF1092A101109283
:10027000A00181E080939C01CFCF80919F018823D2
:1002800031F010929F0188B391E0892788BB80915B
:100290009E01882339F010929E01C19A82E791E075
:1002A0000E94C20080919D01882319F010929D0147
:1002B000C19880919C01882331F010929C0186E8BE
:1002C00091E00C94C20008951F920F920FB60F9206
:1002D00011248F9381E08093AB018F910F900FBE1B
:1002E0000F901F9018951FBC88E08EBD81EE94E0A2
:1002F0009BBD8ABD1DBC1CBC89B7806189BF8EB502
:1003000083608EBD08959FB7F8948091AB018111F1
:100310001092AB019FBF08958091AA018F5F8C332B
:1003200018F48093AA0108951092AA018091A9015E
:100330008F5F8C3318F48093A90108951092A9015E
:100340008091A8018F5F883118F48093A8010895E7
:100350001092A80108956091A8017091A90180915F
:10036000AA010895683108F067E16093A8017C3321
:1003700008F07BE37093A9018C3308F08BE3809342
:10038000AA010895E8EAF1E010821182128208952C
:100390000E9449000E947D000E94C8000E947301D3
:1003A00078948BE690E00E94C2008AE890E00E9478
:1003B000C20089EA90E00E94C20084EC90E00E94B2
:1003C000C2000E94AB010E94A200C12CC0E00CE35D
:1003D00010E088E1E82EF12C0E948301882379F057
:1003E0000E94E700C39483E68C1548F4C11102C053
:1003F0000E948C010E94AB010E94A200C12C0E94AD
:100400003D010E945000823021F1833009F453C035
:10041000813011F7C13089F050F0C230A1F0C33003
:10042000D9F68DE191E00E94C200C0E0D5CF83EE05
:1004300090E00E94C200C1E0CFCF85EF90E00E9423
:10044000C200C2E0C9CF89E091E00E94C200C3E0CF
:10045000C3CFCC2309F20E94AB01B62ED72ED82FE2
:10046000C230D1F0C33001F1C13039F4862F90E0B1
:100470000196B7010E947002B82E6B2D7D2D8D2F35
:100480000E94B2016B2D7D2D8D2F0E94A2008AE368
:1004900091E00E94C200A0CF872F90E00196B801A2
:1004A0000E947002D82EE9CF90E00196B8010E9418
:1004B0007002D82FE2CF0E94C2010E94AB010E94BD
:1004C000A20082E591E0AFCF991B79E004C0991FAB
:1004D000961708F0961B881F7A95C9F7809508959E
:1004E00097FB072E16F4009407D077FD09D00E94E1
:1004F000840207FC05D03EF4909581959F4F0895A6
:10050000709561957F4F0895AA1BBB1B51E107C0F1
:10051000AA1FBB1FA617B70710F0A61BB70B881F93
:10052000991F5A95A9F780959095BC01CD01089522
:04053000F894FFCF6D
:10053400FF54494D453A20000D0A003D3D3D204100
:10054400546D6567613332204469676974616C2056
:10055400436C6F636B203D3D3D0054696D657231A2
:10056400204354432040203120487A207C20555396
:10057400415254203936303000427574746F6E73B2
:100584003A20534554202F20494E43202F205245D2
:10059400534554002D2D2D2D2D2D2D2D2D2D2D2D4F
:1005A4002D2D2D2D2D2D2D2D2D2D2D2D2D2D2D2D77
:1005B4002D2D005B5345545D204D6F64653A2048F2
:1005C4004F555253005B5345545D204D6F64653A5B
:1005D400204D494E55544553005B5345545D204DC1
:1005E4006F64653A205345434F4E4453005B534573
:1005F400545D204D6F64653A204E4F524D414C205E
:100604002872756E6E696E6729005B494E435D20E2
:100614004669656C6420696E6372656D656E7465A8
:1006240064005B52455345545D20436C6F636B20FB
:10063400726573657420746F2030303A30303A300C
:1006440030005441534B3A2053454E534F5220539C
:10065400414D504C45005B3530306D732054696317
:0C0664006B5D20457874205461736B00BE
:00000001FF
