:100000000C942A000C9447000C9447000C94470071
:100010000C9447000C9447000C9447000C94590131
:100020000C9447000C9447000C9447000C94470034
:100030000C9447000C9447000C9447000C94470024
:100040000C9447000C9447000C9447000C94470014
:100050000C94470011241FBECFE5D8E0DEBFCDBF12
:1000600011E0A0E6B0E0EEE1F5E002C005900D92EF
:10007000A238B107D9F721E0A2E8B1E001C01D9292
:10008000A239B207E1F70E94BD010C948D020C94D5
:1000900000008AB3887F8ABB8BB387608BBB0895CF
:1000A00099B39770892F8095209160008223909357
:1000B00060008823D1F02FE738E391E021503040F1
:1000C0009040E1F700C0000099B3292F27702093DA
:1000D000600080FF02C090FF0AC081FF02C091FF54
:1000E00008C082FF02C092FF06C080E0089581E050
:1000F000089582E0089583E0089510BC83E389B9F0
:1001000088E18AB986E880BD08955D9BFECF8CB9F1
:100110000895CF936AE00E945902C92F805D0E9422
:10012000850080E38C0FCF910C948500CF93DF93F3
:10013000EC018991811103C0DF91CF9108950E9454
:100140008500F7CFCF93DF93D72FC82F862F0E943C
:1001500089008AE30E9485008D2F0E9489008AE32E
:100160000E9485008C2F0E94890081E690E0DF913B
:10017000CF910C9496000E94960081E690E00C943A
:10018000960087B3836087BB88B38C7F88BB10924F
:100190008D0110928C0110928B0110928A011092A5
:1001A00089011092880110928701109286011092A5
:1001B00085011092840110928301109282010895AA
:1001C00080918C0190918D010196883C910590F56C
:1001D00090938D0180938C0180918A0190918B0185
:1001E0000196843F21E0920768F590938B018093FC
:1001F0008A01809186019091870101968233910551
:1002000068F5909387018093860180918801909191
:1002100089018436910568F4C19B0BC001969093C7
:100220008901809388018436910519F481E08093D7
:100230008301089510928D0110928C0181E08093CA
:100240008501CACF10928B0110928A0181E08093C0
:1002500084011092890110928801CBCF10928701FE
:100260001092860181E080938201CFCF8091850139
:10027000882331F01092850188B391E0892788BBEB
:1002800080918401882319F010928401C19A809191
:100290008301882319F010928301C1988091820113
:1002A000882331F0109282018BE691E00C94BB0020
:1002B00008951F920F920FB60F9211248F9381E031
:1002C000809391018F910F900FBE0F901F90189502
:1002D0001FBC88E08EBD81EE94E09BBD8ABD1DBC35
:1002E0001CBC89B7806189BF8EB583608EBD0895BF
:1002F0009FB7F894809191018111109291019FBF55
:100300000895809190018F5F8C3318F48093900151
:1003100008951092900180918F018F5F8C3318F4B3
:1003200080938F01089510928F0180918E018F5FCD
:10033000883118F480938E01089510928E010895EB
:1003400060918E0170918F018091900108956831C4
:1003500008F067E160938E017C3308F07BE37093D3
:100360008F018C3308F08BE3809390010895EEE8C1
:10037000F1E010821182128208950E9449000E94C9
:100380007D000E94C1000E946801789484E690E09C
:100390000E94BB0083E890E00E94BB0082EA90E0EC
:1003A0000E94BB008DEB90E00E94BB000E94A00168
:1003B0000E94A200C12CC0E00CE310E088E1E82E0E
:1003C000F12C0E947801882379F00E94E000C39408
:1003D00083E68C1548F4C11102C00E9481010E947D
:1003E000A0010E94A200C12C0E9436010E94500070
:1003F000823021F1833009F453C0813011F7C130CC
:1004000089F050F0C230A1F0C330D9F686E191E016
:100410000E94BB00C0E0D5CF8CED90E00E94BB00F5
:10042000C1E0CFCF8EEE90E00E94BB00C2E0C9CF0A
:1004300082E091E00E94BB00C3E0C3CFCC2309F26D
:100440000E94A001B62ED72ED82FC230D1F0C330D3
:1004500001F1C13039F4862F90E00196B7010E9476
:100460006502B82E6B2D7D2D8D2F0E94A7016B2D5F
:100470007D2D8D2F0E94A20083E391E00E94BB009E
:10048000A0CF872F90E00196B8010E946502D82E78
:10049000E9CF90E00196B8010E946502D82FE2CF23
:1004A0000E94B7010E94A0010E94A2008BE491E08B
:1004B000AFCF991B79E004C0991F961708F0961BDF
:1004C000881F7A95C9F78095089597FB072E16F433
:1004D000009407D077FD09D00E94790207FC05D06F
:1004E0003EF4909581959F4F0895709561957F4F4B
:1004F0000895AA1BBB1B51E107C0AA1FBB1FA6176B
:10050000B70710F0A61BB70B881F991F5A95A9F7BC
:0E05100080959095BC01CD010895F894FFCF21
:10051E00FF0D0A003D3D3D2041546D65676133324C
:10052E00204469676974616C20436C6F636B203D76
:10053E003D3D0054696D6572312043544320402087
:10054E003120487A207C2055534152542039363080
:10055E003000427574746F6E733A20534554202FD9
:10056E0020494E43202F205245534554002D2D2D0A
:10057E002D2D2D2D2D2D2D2D2D2D2D2D2D2D2D2D9D
:10058E002D2D2D2D2D2D2D2D2D2D2D005B53455427
:10059E005D204D6F64653A20484F555253005B53B2
:1005AE0045545D204D6F64653A204D494E55544576
:1005BE0053005B5345545D204D6F64653A2053459F
:1005CE00434F4E4453005B5345545D204D6F64655D
:1005DE003A204E4F524D414C202872756E6E696E08
:1005EE006729005B494E435D204669656C6420694E
:1005FE006E6372656D656E746564005B524553453E
:10060E00545D20436C6F636B207265736574207448
:10061E006F2030303A30303A3030005B3530306D4C
:10062E0073205469636B5D20457874205461736B3D
:02063E000000BA
:00000001FF
