:100000000C942A000C9447000C9447000C94470071
:100010000C9447000C9447000C9447000C94810109
:100020000C9447000C9447000C9447000C94470034
:100030000C9447000C9447000C9447000C94470024
:100040000C9447000C9447000C9447000C94470014
:100050000C94470011241FBECFE5D8E0DEBFCDBF12
:1000600011E0A0E6B0E0E4E7F5E002C005900D92F3
:10007000AE39B107D9F721E0AEE9B1E001C01D9278
:10008000A03BB207E1F70E94E5010C94B8020C9482
:1000900000008AB3887F8ABB8BB387608BBB0895CF
:1000A00099B3977080916000891326C080919F0159
:1000B000853030F58F5F80939F01853009F5209161
:1000C0006100892F8095822380FF05C020919E01C9
:1000D000216020939E0181FF05C020919E01226036
:1000E00020939E0182FF05C080919E0184608093D1
:1000F0009E0190936100089510929F01909360007B
:10010000089580919E0180FF05C08E7F80939E019F
:1001100081E0089581FF05C08D7F80939E0182E07C
:10012000089582FF05C08B7F80939E0183E0089530
:1001300080E0089510BC83E389B988E18AB986E834
:1001400080BD08955D9BFECF8CB90895CF936AE082
:100150000E948402C92F805D0E94A20080E38C0F60
:10016000CF910C94A200CF93DF93EC018991811180
:1001700003C0DF91CF9108950E94A200F7CF1F9393
:10018000CF93DF93162FD72FC82F82E690E00E94DF
:10019000B300812F0E94A6008AE30E94A2008D2F47
:1001A0000E94A6008AE30E94A2008C2F0E94A60053
:1001B00089E690E0DF91CF911F910C94B3000E94EB
:1001C000B30089E690E00C94B30087B3836087BBEB
:1001D00088B38C7F88BB1092AB011092AA01109259
:1001E000A9011092A8011092A7011092A6011092E5
:1001F000A5011092A4011092A3011092A2011092E5
:10020000A1011092A00108958091AA019091AB01E3
:100210000196883C910590F59093AB018093AA01DB
:100220008091A8019091A9010196843F21E0920755
:1002300068F59093A9018093A8018091A401909101
:10024000A50101968233910568F59093A5018093ED
:10025000A4018091A6019091A7018436910568F4CC
:10026000C19B0BC001969093A7018093A601843691
:10027000910519F481E08093A10108951092AB01DA
:100280001092AA0181E08093A301CACF1092A90124
:100290001092A80181E08093A2011092A701109210
:1002A000A601CBCF1092A5011092A40181E080930A
:1002B000A001CFCF8091A301882331F01092A30138
:1002C00088B391E0892788BB8091A201882339F007
:1002D0001092A201C19A83E791E00E94DF00809111
:1002E000A101882319F01092A101C1988091A00169
:1002F000882331F01092A00187E891E00C94DF0090
:1003000008951F920F920FB60F9211248F9381E0E0
:100310008093AF018F910F900FBE0F901F90189593
:100320001FBC88E08EBD81EE94E09BBD8ABD1DBCE4
:100330001CBC89B7806189BF8EB583608EBD08956E
:100340009FB7F8948091AF0181111092AF019FBFC8
:1003500008958091AE018F5F8C3318F48093AE01C5
:1003600008951092AE018091AD018F5F8C3318F427
:100370008093AD0108951092AD018091AC018F5F23
:10038000883118F48093AC0108951092AC0108955F
:100390006091AC017091AD018091AE01089568311A
:1003A00008F067E16093AC017C3308F07BE3709365
:1003B000AD018C3308F08BE38093AE010895ECEA35
:1003C000F1E010821182128208950E9449000E9479
:1003D0009A000E94E5000E94900178948CE690E0DB
:1003E0000E94DF008BE890E00E94DF008AEA90E044
:1003F0000E94DF0085EC90E00E94DF000E94C801AF
:100400000E94BF00C12CC0E00CE310E088E1E82EA0
:10041000F12C0E94A001882389F00E9404010E940F
:100420005000C39483E68C1548F4C11102C00E94A9
:10043000A9010E94C8010E94BF00C12C0E945A015C
:100440000E948100823021F1833009F454C0813050
:1004500001F7C13089F050F0C230A1F0C330C9F6C5
:100460008EE191E00E94DF00C0E0D3CF84EE90E007
:100470000E94DF00C1E0CDCF86EF90E00E94DF0058
:10048000C2E0C7CF8AE091E00E94DF00C3E0C1CFA5
:10049000CC2309F4BECF0E94C801B62ED72ED82F88
:1004A000C230D1F0C33001F1C13039F4862F90E071
:1004B0000196B7010E949002B82E6B2D7D2D8D2FD5
:1004C0000E94CF016B2D7D2D8D2F0E94BF008BE3ED
:1004D00091E00E94DF009DCF872F90E00196B80148
:1004E0000E949002D82EE9CF90E00196B8010E94B8
:1004F0009002D82FE2CF0E94DF010E94C8010E9423
:10050000BF0083E591E0AECF991B79E004C0991F4D
:10051000961708F0961B881F7A95C9F7809508955D
:1005200097FB072E16F4009407D077FD09D00E94A0
:10053000A40207FC05D03EF4909581959F4F089545
:10054000709561957F4F0895AA1BBB1B51E107C0B1
:10055000AA1FBB1FA617B70710F0A61BB70B881F53
:10056000991F5A95A9F780959095BC01CD010895E2
:04057000F894FFCF2D
:10057400FFFF54494D453A20000D0A003D3D3D2002
:1005840041546D6567613332204469676974616CF5
:1005940020436C6F636B203D3D3D0054696D657273
:1005A40031204354432040203120487A207C205578
:1005B40053415254203936303000427574746F6E92
:1005C400733A20534554202F20494E43202F205264
:1005D40045534554002D2D2D2D2D2D2D2D2D2D2DF7
:1005E4002D2D2D2D2D2D2D2D2D2D2D2D2D2D2D2D37
:1005F4002D2D2D005B5345545D204D6F64653A20CD
:10060400484F555253005B5345545D204D6F64650C
:100614003A204D494E55544553005B5345545D2093
:100624004D6F64653A205345434F4E4453005B532A
:1006340045545D204D6F64653A204E4F524D414CF8
:10064400202872756E6E696E6729005B494E435DA2
:10065400204669656C6420696E6372656D656E74AD
:100664006564005B52455345545D20436C6F636B76
:1006740020726573657420746F2030303A30303ADC
:100684003030005441534B3A2053454E534F52207F
:1006940053414D504C45005B3530306D73205469E7
:0E06A400636B5D20457874205461736B000019
:00000001FF
