:100000000C942A000C9447000C9447000C94470071
:100010000C9447000C9447000C9447000C946A0120
:100020000C9447000C9447000C9447000C94470034
:100030000C9447000C9447000C9447000C94470024
:100040000C9447000C9447000C9447000C94470014
:100050000C94470011241FBECFE5D8E0DEBFCDBF12
:1000600011E0A0E6B0E0E8E3F5E002C005900D92F3
:10007000AA39B107D9F721E0AAE9B1E001C01D9280
:10008000AB3AB207E1F70E94CE010C949A020C94AD
:1000900000008AB3887F8ABB8BB387608BBB0895CF
:1000A00099B39770892F809520916000822380FFFB
:1000B00005C020919A01216020939A0181FF05C01B
:1000C00020919A01226020939A0182FF05C08091BD
:1000D0009A01846080939A019093600008958091C2
:1000E0009A0180FF05C08E7F80939A0181E0089578
:1000F00081FF05C08D7F80939A0182E0089582FF81
:1001000005C08B7F80939A0183E0089580E0089575
:1001100010BC83E389B988E18AB986E880BD089577
:100120005D9BFECF8CB90895CF936AE00E94660272
:10013000C92F805D0E94900080E38C0FCF910C94BA
:100140009000CF93DF93EC018991811103C0DF917F
:10015000CF9108950E949000F7CF1F93CF93DF9324
:10016000162FD72FC82F81E690E00E94A100812F83
:100170000E9494008AE30E9490008D2F0E949400B8
:100180008AE30E9490008C2F0E94940088E690E001
:10019000DF91CF911F910C94A1000E94A10088E6ED
:1001A00090E00C94A10087B3836087BB88B38C7FF9
:1001B00088BB1092A6011092A5011092A401109282
:1001C000A3011092A2011092A1011092A00110921D
:1001D0009F0110929E0110929D0110929C0110921D
:1001E0009B0108958091A5019091A601019682300E
:1001F000910568F59093A6018093A5018091A301D4
:100200009091A40101968530910548F59093A40141
:100210008093A30180919F019091A00101968A3063
:10022000910548F59093A00180939F018091A101D1
:100230009091A201892B51F4C19B08C081E090E00C
:100240009093A2018093A10180939C010895109244
:10025000A6011092A50181E080939E01CFCF10925C
:10026000A4011092A30181E080939D011092A2014C
:100270001092A101CFCF1092A00110929F0181E0B6
:1002800080939B01D3CF80919E01882331F01092FF
:100290009E0188B391E0892788BB80919D018823C6
:1002A00039F010929D01C19A82E791E00E94CD0041
:1002B00080919C01882319F010929C01C198809133
:1002C0009B01882331F010929B0186E891E00C9409
:1002D000CD0008951F920F920FB60F9211248F93A5
:1002E00081E08093AA018F910F900FBE0F901F9015
:1002F00018951FBC88E08EBD84E89EE19BBD8ABD39
:100300001DBC1CBC89B7806189BF8EB585608EBD60
:1003100008959FB7F8948091AA0181111092AA01C3
:100320009FBF08958091A9018F5F8C3318F480934B
:10033000A90108951092A9018091A8018F5F8C33C3
:1003400018F48093A80108951092A8018091A70144
:100350008F5F883118F48093A70108951092A70148
:1003600008956091A7017091A8018091A901089555
:10037000683108F067E16093A7017C3308F07BE304
:100380007093A8018C3308F08BE38093A901089542
:10039000E7EAF1E010821182128208950E9449007A
:1003A0000E9488000E94D3000E94790178948BE615
:1003B00090E00E94CD008AE890E00E94CD0089EA9A
:1003C00090E00E94CD0084EC90E00E94CD000E945D
:1003D000B1010E94AD00C0E00CE310E088E1E82E1E
:1003E000F12C0E948901882361F00E94F2000E9492
:1003F0005000C11102C00E9492010E94B1010E94EE
:10040000AD000E9443010E946F00823021F18330D1
:1004100009F453C0813029F7C13089F050F0C2305F
:10042000A1F0C330F1F68DE191E00E94CD00C0E073
:10043000D8CF83EE90E00E94CD00C1E0D2CF85EF0F
:1004400090E00E94CD00C2E0CCCF89E091E00E9414
:10045000CD00C3E0C6CFCC2321F20E94B101D62E3D
:10046000D72FC82EC230D1F0C33001F1C13039F4DA
:10047000862F90E00196B7010E947202D82E6D2D52
:100480007D2F8C2D0E94B8016D2D7D2F8C2D0E940B
:10049000AD008AE391E00E94CD00A3CF872F90E0CA
:1004A0000196B8010E947202D82FE9CF90E0019620
:1004B000B8010E947202C82EE2CF0E94C8010E94B9
:1004C000B1010E94AD0082E591E0AFCF991B79E0C8
:1004D00004C0991F961708F0961B881F7A95C9F7D4
:1004E0008095089597FB072E16F4009407D077FDAA
:1004F00009D00E94860207FC05D03EF490958195B4
:100500009F4F0895709561957F4F0895AA1BBB1B5F
:1005100051E107C0AA1FBB1FA617B70710F0A61B03
:10052000B70B881F991F5A95A9F780959095BC0124
:08053000CD010895F894FFCFFE
:10053800FF54494D453A20000D0A003D3D3D2041FC
:10054800546D6567613332204469676974616C2052
:10055800436C6F636B203D3D3D0054696D6572319E
:10056800204354432040203120487A207C20555392
:10057800415254203936303000427574746F6E73AE
:100588003A20534554202F20494E43202F205245CE
:10059800534554002D2D2D2D2D2D2D2D2D2D2D2D4B
:1005A8002D2D2D2D2D2D2D2D2D2D2D2D2D2D2D2D73
:1005B8002D2D005B5345545D204D6F64653A2048EE
:1005C8004F555253005B5345545D204D6F64653A57
:1005D800204D494E55544553005B5345545D204DBD
:1005E8006F64653A205345434F4E4453005B53456F
:1005F800545D204D6F64653A204E4F524D414C205A
:100608002872756E6E696E6729005B494E435D20DE
:100618004669656C6420696E6372656D656E7465A4
:1006280064005B52455345545D20436C6F636B20F7
:10063800726573657420746F2030303A30303A3008
:1006480030005441534B3A2053454E534F52205398
:10065800414D504C45005B313073205469636B5DEC
:0A06680020457874205461736B0084
:00000001FF
